{
  "contractName": "SupplyChain",
  "abi": [
    {
      "inputs": [],
      "stateMutability": "nonpayable",
      "type": "constructor"
    },
    {
      "anonymous": false,
      "inputs": [
        {
          "indexed": true,
          "internalType": "uint256",
          "name": "medicineId",
          "type": "uint256"
        },
        {
          "indexed": false,
          "internalType": "string",
          "name": "name",
          "type": "string"
        }
      ],
      "name": "MedicineAdded",
      "type": "event"
    },
    {
      "anonymous": false,
      "inputs": [
        {
          "indexed": true,
          "internalType": "uint256",
          "name": "medicineId",
          "type": "uint256"
        },
        {
          "indexed": false,
          "internalType": "enum SupplyChain.Stage",
          "name": "newStage",
          "type": "uint8"
        }
      ],
      "name": "MedicineStageUpdated",
      "type": "event"
    },
    {
      "anonymous": false,
      "inputs": [
        {
          "indexed": true,
          "internalType": "address",
          "name": "participant",
          "type": "address"
        },
        {
          "indexed": false,
          "internalType": "string",
          "name": "role",
          "type": "string"
        }
      ],
      "name": "ParticipantAdded",
      "type": "event"
    },
    {
      "anonymous": false,
      "inputs": [
        {
          "indexed": true,
          "internalType": "uint256",
          "name": "medicineId",
          "type": "uint256"
        },
        {
          "indexed": false,
          "internalType": "string",
          "name": "trackingId",
          "type": "string"
        }
      ],
      "name": "ShipmentCreated",
      "type": "event"
    },
    {
      "anonymous": false,
      "inputs": [
        {
          "indexed": false,
          "internalType": "string",
          "name": "trackingId",
          "type": "string"
        },
        {
          "indexed": false,
          "internalType": "enum SupplyChain.ShipmentStatus",
          "name": "status",
          "type": "uint8"
        }
      ],
      "name": "ShipmentUpdated",
      "type": "event"
    },
    {
      "anonymous": false,
      "inputs": [
        {
          "indexed": false,
          "internalType": "string",
          "name": "trackingId",
          "type": "string"
        },
        {
          "indexed": false,
          "internalType": "enum SupplyChain.ShipmentStatus",
          "name": "status",
          "type": "uint8"
        },
        {
          "indexed": false,
          "internalType": "string",
          "name": "note",
          "type": "string"
        },
        {
          "indexed": false,
          "internalType": "address",
          "name": "updatedBy",
          "type": "address"
        }
      ],
      "name": "ShipmentUpdatedWithNote",
      "type": "event"
    },
    {
      "anonymous": false,
      "inputs": [
        {
          "indexed": true,
          "internalType": "uint256",
          "name": "medicineId",
          "type": "uint256"
        },
        {
          "indexed": false,
          "internalType": "string",
          "name": "action",
          "type": "string"
        },
        {
          "indexed": false,
          "internalType": "address",
          "name": "participant",
          "type": "address"
        }
      ],
      "name": "TransactionRecorded",
      "type": "event"
    },
    {
      "inputs": [
        {
          "internalType": "address",
          "name": "",
          "type": "address"
        }
      ],
      "name": "distributors",
      "outputs": [
        {
          "internalType": "address",
          "name": "addr",
          "type": "address"
        },
        {
          "internalType": "string",
          "name": "name",
          "type": "string"
        },
        {
          "internalType": "string",
          "name": "location",
          "type": "string"
        }
      ],
      "stateMutability": "view",
      "type": "function",
      "constant": true
    },
    {
      "inputs": [
        {
          "internalType": "address",
          "name": "",
          "type": "address"
        }
      ],
      "name": "manufacturers",
      "outputs": [
        {
          "internalType": "address",
          "name": "addr",
          "type": "address"
        },
        {
          "internalType": "string",
          "name": "name",
          "type": "string"
        },
        {
          "internalType": "string",
          "name": "location",
          "type": "string"
        }
      ],
      "stateMutability": "view",
      "type": "function",
      "constant": true
    },
    {
      "inputs": [],
      "name": "medicineCounter",
      "outputs": [
        {
          "internalType": "uint256",
          "name": "",
          "type": "uint256"
        }
      ],
      "stateMutability": "view",
      "type": "function",
      "constant": true
    },
    {
      "inputs": [
        {
          "internalType": "uint256",
          "name": "",
          "type": "uint256"
        }
      ],
      "name": "medicines",
      "outputs": [
        {
          "internalType": "uint256",
          "name": "id",
          "type": "uint256"
        },
        {
          "internalType": "string",
          "name": "name",
          "type": "string"
        },
        {
          "internalType": "string",
          "name": "description",
          "type": "string"
        },
        {
          "internalType": "address",
          "name": "supplier",
          "type": "address"
        },
        {
          "internalType": "address",
          "name": "manufacturer",
          "type": "address"
        },
        {
          "internalType": "address",
          "name": "distributor",
          "type": "address"
        },
        {
          "internalType": "address",
          "name": "retailer",
          "type": "address"
        },
        {
          "internalType": "enum SupplyChain.Stage",
          "name": "stage",
          "type": "uint8"
        }
      ],
      "stateMutability": "view",
      "type": "function",
      "constant": true
    },
    {
      "inputs": [],
      "name": "owner",
      "outputs": [
        {
          "internalType": "address",
          "name": "",
          "type": "address"
        }
      ],
      "stateMutability": "view",
      "type": "function",
      "constant": true
    },
    {
      "inputs": [
        {
          "internalType": "address",
          "name": "",
          "type": "address"
        }
      ],
      "name": "retailers",
      "outputs": [
        {
          "internalType": "address",
          "name": "addr",
          "type": "address"
        },
        {
          "internalType": "string",
          "name": "name",
          "type": "string"
        },
        {
          "internalType": "string",
          "name": "location",
          "type": "string"
        }
      ],
      "stateMutability": "view",
      "type": "function",
      "constant": true
    },
    {
      "inputs": [
        {
          "internalType": "string",
          "name": "",
          "type": "string"
        },
        {
          "internalType": "uint256",
          "name": "",
          "type": "uint256"
        }
      ],
      "name": "shipmentNotes",
      "outputs": [
        {
          "internalType": "enum SupplyChain.ShipmentStatus",
          "name": "status",
          "type": "uint8"
        },
        {
          "internalType": "string",
          "name": "note",
          "type": "string"
        },
        {
          "internalType": "uint256",
          "name": "timestamp",
          "type": "uint256"
        },
        {
          "internalType": "address",
          "name": "updatedBy",
          "type": "address"
        }
      ],
      "stateMutability": "view",
      "type": "function",
      "constant": true
    },
    {
      "inputs": [
        {
          "internalType": "string",
          "name": "",
          "type": "string"
        }
      ],
      "name": "shipments",
      "outputs": [
        {
          "internalType": "uint256",
          "name": "medicineId",
          "type": "uint256"
        },
        {
          "internalType": "address",
          "name": "sender",
          "type": "address"
        },
        {
          "internalType": "address",
          "name": "receiver",
          "type": "address"
        },
        {
          "internalType": "string",
          "name": "trackingId",
          "type": "string"
        },
        {
          "internalType": "enum SupplyChain.ShipmentStatus",
          "name": "status",
          "type": "uint8"
        }
      ],
      "stateMutability": "view",
      "type": "function",
      "constant": true
    },
    {
      "inputs": [
        {
          "internalType": "address",
          "name": "",
          "type": "address"
        }
      ],
      "name": "suppliers",
      "outputs": [
        {
          "internalType": "address",
          "name": "addr",
          "type": "address"
        },
        {
          "internalType": "string",
          "name": "name",
          "type": "string"
        },
        {
          "internalType": "string",
          "name": "location",
          "type": "string"
        }
      ],
      "stateMutability": "view",
      "type": "function",
      "constant": true
    },
    {
      "inputs": [
        {
          "internalType": "uint256",
          "name": "",
          "type": "uint256"
        }
      ],
      "name": "transactions",
      "outputs": [
        {
          "internalType": "uint256",
          "name": "medicineId",
          "type": "uint256"
        },
        {
          "internalType": "address",
          "name": "participant",
          "type": "address"
        },
        {
          "internalType": "string",
          "name": "action",
          "type": "string"
        },
        {
          "internalType": "uint256",
          "name": "timestamp",
          "type": "uint256"
        }
      ],
      "stateMutability": "view",
      "type": "function",
      "constant": true
    },
    {
      "inputs": [
        {
          "internalType": "address",
          "name": "newOwner",
          "type": "address"
        }
      ],
      "name": "transferOwnership",
      "outputs": [],
      "stateMutability": "nonpayable",
      "type": "function"
    },
    {
      "inputs": [
        {
          "internalType": "string",
          "name": "_name",
          "type": "string"
        },
        {
          "internalType": "string",
          "name": "_description",
          "type": "string"
        }
      ],
      "name": "addMedicine",
      "outputs": [],
      "stateMutability": "nonpayable",
      "type": "function"
    },
    {
      "inputs": [
        {
          "internalType": "address",
          "name": "_addr",
          "type": "address"
        },
        {
          "internalType": "string",
          "name": "_name",
          "type": "string"
        },
        {
          "internalType": "string",
          "name": "_location",
          "type": "string"
        }
      ],
      "name": "addSupplier",
      "outputs": [],
      "stateMutability": "nonpayable",
      "type": "function"
    },
    {
      "inputs": [
        {
          "internalType": "address",
          "name": "_addr",
          "type": "address"
        },
        {
          "internalType": "string",
          "name": "_name",
          "type": "string"
        },
        {
          "internalType": "string",
          "name": "_location",
          "type": "string"
        }
      ],
      "name": "addManufacturer",
      "outputs": [],
      "stateMutability": "nonpayable",
      "type": "function"
    },
    {
      "inputs": [
        {
          "internalType": "address",
          "name": "_addr",
          "type": "address"
        },
        {
          "internalType": "string",
          "name": "_name",
          "type": "string"
        },
        {
          "internalType": "string",
          "name": "_location",
          "type": "string"
        }
      ],
      "name": "addDistributor",
      "outputs": [],
      "stateMutability": "nonpayable",
      "type": "function"
    },
    {
      "inputs": [
        {
          "internalType": "address",
          "name": "_addr",
          "type": "address"
        },
        {
          "internalType": "string",
          "name": "_name",
          "type": "string"
        },
        {
          "internalType": "string",
          "name": "_location",
          "type": "string"
        }
      ],
      "name": "addRetailer",
      "outputs": [],
      "stateMutability": "nonpayable",
      "type": "function"
    },
    {
      "inputs": [
        {
          "internalType": "uint256",
          "name": "_medicineID",
          "type": "uint256"
        }
      ],
      "name": "supplyRawMaterials",
      "outputs": [],
      "stateMutability": "nonpayable",
      "type": "function"
    },
    {
      "inputs": [
        {
          "internalType": "uint256",
          "name": "_medicineID",
          "type": "uint256"
        }
      ],
      "name": "manufactureMedicine",
      "outputs": [],
      "stateMutability": "nonpayable",
      "type": "function"
    },
    {
      "inputs": [
        {
          "internalType": "uint256",
          "name": "_medicineID",
          "type": "uint256"
        }
      ],
      "name": "distributeMedicine",
      "outputs": [],
      "stateMutability": "nonpayable",
      "type": "function"
    },
    {
      "inputs": [
        {
          "internalType": "uint256",
          "name": "_medicineID",
          "type": "uint256"
        }
      ],
      "name": "retailMedicine",
      "outputs": [],
      "stateMutability": "nonpayable",
      "type": "function"
    },
    {
      "inputs": [
        {
          "internalType": "uint256",
          "name": "_medicineID",
          "type": "uint256"
        }
      ],
      "name": "sellMedicine",
      "outputs": [],
      "stateMutability": "nonpayable",
      "type": "function"
    },
    {
      "inputs": [
        {
          "internalType": "uint256",
          "name": "_medicineID",
          "type": "uint256"
        }
      ],
      "name": "getMedicineStage",
      "outputs": [
        {
          "internalType": "string",
          "name": "",
          "type": "string"
        }
      ],
      "stateMutability": "view",
      "type": "function",
      "constant": true
    },
    {
      "inputs": [
        {
          "internalType": "uint256",
          "name": "_medicineID",
          "type": "uint256"
        },
        {
          "internalType": "address",
          "name": "_receiver",
          "type": "address"
        },
        {
          "internalType": "string",
          "name": "_trackingId",
          "type": "string"
        }
      ],
      "name": "createShipment",
      "outputs": [],
      "stateMutability": "nonpayable",
      "type": "function"
    },
    {
      "inputs": [
        {
          "internalType": "string",
          "name": "_trackingId",
          "type": "string"
        },
        {
          "internalType": "enum SupplyChain.ShipmentStatus",
          "name": "_status",
          "type": "uint8"
        }
      ],
      "name": "updateShipmentStatus",
      "outputs": [],
      "stateMutability": "nonpayable",
      "type": "function"
    },
    {
      "inputs": [
        {
          "internalType": "string",
          "name": "_trackingId",
          "type": "string"
        },
        {
          "internalType": "enum SupplyChain.ShipmentStatus",
          "name": "_status",
          "type": "uint8"
        },
        {
          "internalType": "string",
          "name": "_note",
          "type": "string"
        }
      ],
      "name": "updateShipmentStatusWithNote",
      "outputs": [],
      "stateMutability": "nonpayable",
      "type": "function"
    },
    {
      "inputs": [
        {
          "internalType": "string",
          "name": "_trackingId",
          "type": "string"
        }
      ],
      "name": "getShipmentNotes",
      "outputs": [
        {
          "components": [
            {
              "internalType": "enum SupplyChain.ShipmentStatus",
              "name": "status",
              "type": "uint8"
            },
            {
              "internalType": "string",
              "name": "note",
              "type": "string"
            },
            {
              "internalType": "uint256",
              "name": "timestamp",
              "type": "uint256"
            },
            {
              "internalType": "address",
              "name": "updatedBy",
              "type": "address"
            }
          ],
          "internalType": "struct SupplyChain.ShipmentNote[]",
          "name": "",
          "type": "tuple[]"
        }
      ],
      "stateMutability": "view",
      "type": "function",
      "constant": true
    },
    {
      "inputs": [],
      "name": "getTransactions",
      "outputs": [
        {
          "components": [
            {
              "internalType": "uint256",
              "name": "medicineId",
              "type": "uint256"
            },
            {
              "internalType": "address",
              "name": "participant",
              "type": "address"
            },
            {
              "internalType": "string",
              "name": "action",
              "type": "string"
            },
            {
              "internalType": "uint256",
              "name": "timestamp",
              "type": "uint256"
            }
          ],
          "internalType": "struct SupplyChain.Transaction[]",
          "name": "",
          "type": "tuple[]"
        }
      ],
      "stateMutability": "view",
      "type": "function",
      "constant": true
    }
  ],
  "bytecode": "0x608060405234801561001057600080fd5b50600080546001600160a01b03191633179055612a17806100326000396000f3fe608060405234801561001057600080fd5b50600436106101a95760003560e01c80639ace38c2116100f9578063c85e766d11610097578063e7d5c46a11610071578063e7d5c46a146103fa578063eddea1441461040d578063f0152ab814610420578063f2fde38b1461043357600080fd5b8063c85e766d146103ad578063cc642784146103d4578063ce90ceff146103e757600080fd5b8063b02385ea116100d3578063b02385ea14610351578063b5fabfda14610364578063b8ee738c14610377578063c359a9e31461038a57600080fd5b80639ace38c214610304578063a288bb9e14610327578063ac859a4b1461033a57600080fd5b80636b5eb09c116101665780638da5cb5b116101405780638da5cb5b146102a05780638f001323146102cb5780638f4183cc146102de5780639a268f35146102f157600080fd5b80636b5eb09c1461026557806383920e9014610278578063857ddb041461028d57600080fd5b80630466dbfc146101ae57806316dc15fe146101d75780632a4af440146101f95780635ceaef5b1461020e5780635cf723a3146102325780636a992c9f14610252575b600080fd5b6101c16101bc36600461211c565b610446565b6040516101ce91906121d3565b60405180910390f35b6101ea6101e536600461228a565b610602565b6040516101ce939291906122ac565b61020c6102073660046122ec565b61073f565b005b61022161021c36600461211c565b610831565b6040516101ce959493929190612360565b6102456102403660046123a1565b610904565b6040516101ce91906123ba565b61020c6102603660046122ec565b610b99565b6101ea61027336600461228a565b610c7f565b610280610cab565b6040516101ce91906123cd565b61020c61029b3660046122ec565b610dc6565b6000546102b3906001600160a01b031681565b6040516001600160a01b0390911681526020016101ce565b61020c6102d93660046123a1565b610ea8565b61020c6102ec366004612456565b610fd2565b6101ea6102ff36600461228a565b61116c565b6103176103123660046123a1565b611198565b6040516101ce94939291906124ba565b61020c6103353660046123a1565b611267565b61034360095481565b6040519081526020016101ce565b61020c61035f3660046123a1565b6113b2565b61020c6103723660046122ec565b6114f6565b61020c6103853660046123a1565b6115d8565b61039d6103983660046124f5565b61171b565b6040516101ce949392919061253a565b6103c06103bb3660046123a1565b61180a565b6040516101ce98979695949392919061258b565b6101ea6103e236600461228a565b611971565b61020c6103f53660046125fe565b61199d565b61020c61040836600461265a565b611b0d565b61020c61041b3660046123a1565b611be0565b61020c61042e3660046126a8565b611d1d565b61020c61044136600461228a565b611ed1565b606060006001600160a01b031660068360405161046391906126ef565b908152604051908190036020019020600101546001600160a01b0316036104a55760405162461bcd60e51b815260040161049c9061270b565b60405180910390fd5b6007826040516104b591906126ef565b9081526020016040518091039020805480602002602001604051908101604052809291908181526020016000905b828210156105f7576000848152602090206040805160808101909152600484029091018054829060ff16600281111561051e5761051e612159565b600281111561052f5761052f612159565b815260200160018201805461054390612737565b80601f016020809104026020016040519081016040528092919081815260200182805461056f90612737565b80156105bc5780601f10610591576101008083540402835291602001916105bc565b820191906000526020600020905b81548152906001019060200180831161059f57829003601f168201915b505050918352505060028201546020808301919091526003909201546001600160a01b031660409091015290825260019290920191016104e3565b505050509050919050565b600260205260009081526040902080546001820180546001600160a01b03909216929161062e90612737565b80601f016020809104026020016040519081016040528092919081815260200182805461065a90612737565b80156106a75780601f1061067c576101008083540402835291602001916106a7565b820191906000526020600020905b81548152906001019060200180831161068a57829003601f168201915b5050505050908060020180546106bc90612737565b80601f01602080910402602001604051908101604052809291908181526020018280546106e890612737565b80156107355780601f1061070a57610100808354040283529160200191610735565b820191906000526020600020905b81548152906001019060200180831161071857829003601f168201915b5050505050905083565b6000546001600160a01b031633146107695760405162461bcd60e51b815260040161049c90612771565b604080516060810182526001600160a01b03858116808352602080840187815284860187905260009283526004909152939020825181546001600160a01b0319169216919091178155915190919060018201906107c690826127e7565b50604082015160028201906107db90826127e7565b50905050826001600160a01b03166000805160206129a2833981519152604051610824906020808252600b908201526a2234b9ba3934b13aba37b960a91b604082015260600190565b60405180910390a2505050565b8051602081830181018051600682529282019190930120915280546001820154600283015460038401805493946001600160a01b0393841694939092169261087890612737565b80601f01602080910402602001604051908101604052809291908181526020018280546108a490612737565b80156108f15780601f106108c6576101008083540402835291602001916108f1565b820191906000526020600020905b8154815290600101906020018083116108d457829003601f168201915b5050506004909301549192505060ff1685565b606060008211801561091857506009548211155b61095a5760405162461bcd60e51b8152602060048201526013602482015272125b9d985b1a59081b59591a58da5b99481251606a1b604482015260640161049c565b60008083815260016020526040902060060154600160a01b900460ff16600581111561098857610988612159565b036109b057505060408051808201909152600781526613dc99195c995960ca1b602082015290565b6001600083815260016020526040902060060154600160a01b900460ff1660058111156109df576109df612159565b03610a1557505060408051808201909152601581527414985dc813585d195c9a585b0814dd5c1c1b1a5959605a1b602082015290565b6002600083815260016020526040902060060154600160a01b900460ff166005811115610a4457610a44612159565b03610a7157505060408051808201909152600c81526b13585b9d599858dd1d5c995960a21b602082015290565b6003600083815260016020526040902060060154600160a01b900460ff166005811115610aa057610aa0612159565b03610acc57505060408051808201909152600b81526a111a5cdd1c9a589d5d195960aa1b602082015290565b6004600083815260016020526040902060060154600160a01b900460ff166005811115610afb57610afb612159565b03610b2257505060408051808201909152600681526514995d185a5b60d21b602082015290565b6005600083815260016020526040902060060154600160a01b900460ff166005811115610b5157610b51612159565b03610b7657505060408051808201909152600481526314dbdb1960e21b602082015290565b50506040805180820190915260078152662ab735b737bbb760c91b602082015290565b6000546001600160a01b03163314610bc35760405162461bcd60e51b815260040161049c90612771565b604080516060810182526001600160a01b03858116808352602080840187815284860187905260009283526003909152939020825181546001600160a01b031916921691909117815591519091906001820190610c2090826127e7565b5060408201516002820190610c3590826127e7565b50905050826001600160a01b03166000805160206129a2833981519152604051610824906020808252600c908201526b26b0b73ab330b1ba3ab932b960a11b604082015260600190565b600360205260009081526040902080546001820180546001600160a01b03909216929161062e90612737565b60606008805480602002602001604051908101604052809291908181526020016000905b82821015610dbd57600084815260209081902060408051608081018252600486029092018054835260018101546001600160a01b03169383019390935260028301805492939291840191610d2290612737565b80601f0160208091040260200160405190810160405280929190818152602001828054610d4e90612737565b8015610d9b5780601f10610d7057610100808354040283529160200191610d9b565b820191906000526020600020905b815481529060010190602001808311610d7e57829003601f168201915b5050505050815260200160038201548152505081526020019060010190610ccf565b50505050905090565b6000546001600160a01b03163314610df05760405162461bcd60e51b815260040161049c90612771565b604080516060810182526001600160a01b03858116808352602080840187815284860187905260009283526005909152939020825181546001600160a01b031916921691909117815591519091906001820190610e4d90826127e7565b5060408201516002820190610e6290826127e7565b50905050826001600160a01b03166000805160206129a2833981519152604051610824906020808252600890820152672932ba30b4b632b960c11b604082015260600190565b6000818152600160205260409020600601546001600160a01b03163314610f115760405162461bcd60e51b815260206004820152601960248201527f4e6f74207468652061737369676e65642072657461696c657200000000000000604482015260640161049c565b6004600082815260016020526040902060060154600160a01b900460ff166005811115610f4057610f40612159565b14610f5d5760405162461bcd60e51b815260040161049c906128a7565b60008181526001602052604090819020600601805460ff60a01b1916600560a01b1790555181906000805160206129c283398151915290610fa0906005906128ce565b60405180910390a2610fcf816040518060400160405280600481526020016314dbdb1960e21b81525033611f65565b50565b6000546001600160a01b03163314610ffc5760405162461bcd60e51b815260040161049c90612771565b6009805490600061100c836128e2565b909155505060408051610100810182526009548152602081018490529081018290526000606082018190526080820181905260a0820181905260c0820181905260e0820152600954600090815260016020818152604090922083518155918301519082019061107b90826127e7565b506040820151600282019061109090826127e7565b5060608201516003820180546001600160a01b03199081166001600160a01b03938416179091556080840151600484018054831691841691909117905560a08401516005808501805484169285169290921790915560c085015160068501805493841691909416908117845560e086015193926001600160a81b0319161790600160a01b90849081111561112657611126612159565b02179055509050506009547f391a5327e58df0236e727eae6e91d54d5aae7a950c4e6616893611e349f6c64e8360405161116091906123ba565b60405180910390a25050565b600560205260009081526040902080546001820180546001600160a01b03909216929161062e90612737565b600881815481106111a857600080fd5b60009182526020909120600490910201805460018201546002830180549294506001600160a01b0390911692916111de90612737565b80601f016020809104026020016040519081016040528092919081815260200182805461120a90612737565b80156112575780601f1061122c57610100808354040283529160200191611257565b820191906000526020600020905b81548152906001019060200180831161123a57829003601f168201915b5050505050908060030154905084565b336000908152600260205260409020546001600160a01b03166112cc5760405162461bcd60e51b815260206004820152601960248201527f4e6f742061207265676973746572656420737570706c69657200000000000000604482015260640161049c565b60008082815260016020526040902060060154600160a01b900460ff1660058111156112fa576112fa612159565b146113175760405162461bcd60e51b815260040161049c906128a7565b60008181526001602081905260409091206003810180546001600160a01b03191633179055600601805460ff60a01b1916600160a01b830217905550806000805160206129c2833981519152600160405161137291906128ce565b60405180910390a2610fcf816040518060400160405280601581526020017414985dc813585d195c9a585b0814dd5c1c1b1a5959605a1b81525033611f65565b336000908152600360205260409020546001600160a01b03166114175760405162461bcd60e51b815260206004820152601d60248201527f4e6f7420612072656769737465726564206d616e756661637475726572000000604482015260640161049c565b6001600082815260016020526040902060060154600160a01b900460ff16600581111561144657611446612159565b146114635760405162461bcd60e51b815260040161049c906128a7565b60008181526001602052604090206004810180546001600160a01b0319163317905560060180546002919060ff60a01b1916600160a01b830217905550806000805160206129c283398151915260026040516114bf91906128ce565b60405180910390a2610fcf816040518060400160405280600c81526020016b13585b9d599858dd1d5c995960a21b81525033611f65565b6000546001600160a01b031633146115205760405162461bcd60e51b815260040161049c90612771565b604080516060810182526001600160a01b03858116808352602080840187815284860187905260009283526002909152939020825181546001600160a01b03191692169190911781559151909190600182019061157d90826127e7565b506040820151600282019061159290826127e7565b50905050826001600160a01b03166000805160206129a28339815191526040516108249060208082526008908201526729bab8383634b2b960c11b604082015260600190565b336000908152600460205260409020546001600160a01b031661163d5760405162461bcd60e51b815260206004820152601c60248201527f4e6f7420612072656769737465726564206469737472696275746f7200000000604482015260640161049c565b6002600082815260016020526040902060060154600160a01b900460ff16600581111561166c5761166c612159565b146116895760405162461bcd60e51b815260040161049c906128a7565b60008181526001602052604090206005810180546001600160a01b0319163317905560060180546003919060ff60a01b1916600160a01b830217905550806000805160206129c283398151915260036040516116e591906128ce565b60405180910390a2610fcf816040518060400160405280600b81526020016a111a5cdd1c9a589d5d195960aa1b81525033611f65565b8151602081840181018051600782529282019185019190912091905280548290811061174657600080fd5b60009182526020909120600490910201805460018201805460ff909216945091925061177190612737565b80601f016020809104026020016040519081016040528092919081815260200182805461179d90612737565b80156117ea5780601f106117bf576101008083540402835291602001916117ea565b820191906000526020600020905b8154815290600101906020018083116117cd57829003601f168201915b5050505060028301546003909301549192916001600160a01b0316905084565b60016020819052600091825260409091208054918101805461182b90612737565b80601f016020809104026020016040519081016040528092919081815260200182805461185790612737565b80156118a45780601f10611879576101008083540402835291602001916118a4565b820191906000526020600020905b81548152906001019060200180831161188757829003601f168201915b5050505050908060020180546118b990612737565b80601f01602080910402602001604051908101604052809291908181526020018280546118e590612737565b80156119325780601f1061190757610100808354040283529160200191611932565b820191906000526020600020905b81548152906001019060200180831161191557829003601f168201915b5050505060038301546004840154600585015460069095015493946001600160a01b03928316949183169350821691811690600160a01b900460ff1688565b600460205260009081526040902080546001820180546001600160a01b03909216929161062e90612737565b6000838152600160205260409020600501546001600160a01b03163314611a125760405162461bcd60e51b8152602060048201526024808201527f4f6e6c79206469737472696275746f722063616e2063726561746520736869706044820152631b595b9d60e21b606482015260840161049c565b6040805160a0810182528481523360208201526001600160a01b0384168183015260608101839052600060808201529051600690611a519084906126ef565b908152604080516020928190038301902083518155918301516001830180546001600160a01b03199081166001600160a01b039384161790915591840151600284018054909316911617905560608201516003820190611ab190826127e7565b50608082015160048201805460ff19166001836002811115611ad557611ad5612159565b0217905550905050827f492580d8002217ac680e66d4bdd4e8c7ff35808636c281021617b4ca690820518260405161082491906123ba565b60006001600160a01b0316600683604051611b2891906126ef565b908152604051908190036020019020600101546001600160a01b031603611b615760405162461bcd60e51b815260040161049c9061270b565b80600683604051611b7291906126ef565b908152604051908190036020019020600401805460ff19166001836002811115611b9e57611b9e612159565b02179055507fae57594f667ede24d3c11b1074a763a20137755617ed4ddbcc470c13d6a0e08d8282604051611bd4929190612909565b60405180910390a15050565b336000908152600560205260409020546001600160a01b0316611c455760405162461bcd60e51b815260206004820152601960248201527f4e6f74206120726567697374657265642072657461696c657200000000000000604482015260640161049c565b6003600082815260016020526040902060060154600160a01b900460ff166005811115611c7457611c74612159565b14611c915760405162461bcd60e51b815260040161049c906128a7565b6000818152600160205260409081902060060180546001600160a81b0319163360ff60a01b191617600160a21b1790555181906000805160206129c283398151915290611ce0906004906128ce565b60405180910390a2610fcf8160405180604001604052806012815260200171417661696c61626c6520666f722053616c6560701b81525033611f65565b60006001600160a01b0316600684604051611d3891906126ef565b908152604051908190036020019020600101546001600160a01b031603611d715760405162461bcd60e51b815260040161049c9061270b565b81600684604051611d8291906126ef565b908152604051908190036020019020600401805460ff19166001836002811115611dae57611dae612159565b0217905550600783604051611dc391906126ef565b90815260200160405180910390206040518060800160405280846002811115611dee57611dee612159565b815260208082018590524260408301523360609092019190915282546001818101855560009485529190932082516004909402018054929390929091839160ff191690836002811115611e4357611e43612159565b021790555060208201516001820190611e5c90826127e7565b506040828101516002830155606090920151600390910180546001600160a01b0319166001600160a01b03909216919091179055517f15ce07397bd110cc0d760c5a9e299b2dc1a06d0c5c0a4f409a8add1fec10743690611ec490859085908590339061292b565b60405180910390a1505050565b6000546001600160a01b03163314611efb5760405162461bcd60e51b815260040161049c90612771565b6001600160a01b038116611f435760405162461bcd60e51b815260206004820152600f60248201526e496e76616c6964206164647265737360881b604482015260640161049c565b600080546001600160a01b0319166001600160a01b0392909216919091179055565b604080516080810182528481526001600160a01b03838116602083019081529282018581524260608401526008805460018101825560009190915283517ff3f7a9fe364faab93b216da50a3214154f22a0a2b415b23a84c8169e8b636ee3600490920291820190815594517ff3f7a9fe364faab93b216da50a3214154f22a0a2b415b23a84c8169e8b636ee4820180546001600160a01b0319169190941617909255519192917ff3f7a9fe364faab93b216da50a3214154f22a0a2b415b23a84c8169e8b636ee59091019061203a90826127e7565b50606082015181600301555050827f0a64252f3b82f7e56a5062061bc724525ad4b4aeeb69f1dc73857fbb8d816bd88383604051610824929190612977565b634e487b7160e01b600052604160045260246000fd5b600082601f8301126120a057600080fd5b813567ffffffffffffffff808211156120bb576120bb612079565b604051601f8301601f19908116603f011681019082821181831017156120e3576120e3612079565b816040528381528660208588010111156120fc57600080fd5b836020870160208301376000602085830101528094505050505092915050565b60006020828403121561212e57600080fd5b813567ffffffffffffffff81111561214557600080fd5b6121518482850161208f565b949350505050565b634e487b7160e01b600052602160045260246000fd5b6003811061217f5761217f612159565b9052565b60005b8381101561219e578181015183820152602001612186565b50506000910152565b600081518084526121bf816020860160208601612183565b601f01601f19169290920160200192915050565b60006020808301818452808551808352604092508286019150828160051b87010184880160005b8381101561226057603f198984030185528151608061221a85835161216f565b88820151818a87015261222f828701826121a7565b838a0151878b01526060938401516001600160a01b03169390960192909252505093860193908601906001016121fa565b509098975050505050505050565b80356001600160a01b038116811461228557600080fd5b919050565b60006020828403121561229c57600080fd5b6122a58261226e565b9392505050565b6001600160a01b03841681526060602082018190526000906122d0908301856121a7565b82810360408401526122e281856121a7565b9695505050505050565b60008060006060848603121561230157600080fd5b61230a8461226e565b9250602084013567ffffffffffffffff8082111561232757600080fd5b6123338783880161208f565b9350604086013591508082111561234957600080fd5b506123568682870161208f565b9150509250925092565b8581526001600160a01b0385811660208301528416604082015260a060608201819052600090612392908301856121a7565b90506122e2608083018461216f565b6000602082840312156123b357600080fd5b5035919050565b6020815260006122a560208301846121a7565b60006020808301818452808551808352604092508286019150828160051b87010184880160005b8381101561226057888303603f19018552815180518452878101516001600160a01b03168885015286810151608088860181905290612435828701826121a7565b606093840151969093019590955250948701949250908601906001016123f4565b6000806040838503121561246957600080fd5b823567ffffffffffffffff8082111561248157600080fd5b61248d8683870161208f565b935060208501359150808211156124a357600080fd5b506124b08582860161208f565b9150509250929050565b8481526001600160a01b03841660208201526080604082018190526000906124e4908301856121a7565b905082606083015295945050505050565b6000806040838503121561250857600080fd5b823567ffffffffffffffff81111561251f57600080fd5b61252b8582860161208f565b95602094909401359450505050565b612544818661216f565b60806020820152600061255a60808301866121a7565b6040830194909452506001600160a01b039190911660609091015292915050565b6006811061217f5761217f612159565b60006101008a83528060208401526125a58184018b6121a7565b905082810360408401526125b9818a6121a7565b6001600160a01b038981166060860152888116608086015287811660a0860152861660c085015291506125f1905060e083018461257b565b9998505050505050505050565b60008060006060848603121561261357600080fd5b833592506126236020850161226e565b9150604084013567ffffffffffffffff81111561263f57600080fd5b6123568682870161208f565b80356003811061228557600080fd5b6000806040838503121561266d57600080fd5b823567ffffffffffffffff81111561268457600080fd5b6126908582860161208f565b92505061269f6020840161264b565b90509250929050565b6000806000606084860312156126bd57600080fd5b833567ffffffffffffffff808211156126d557600080fd5b6126e18783880161208f565b94506123336020870161264b565b60008251612701818460208701612183565b9190910192915050565b60208082526012908201527114da1a5c1b595b9d081b9bdd08199bdd5b9960721b604082015260600190565b600181811c9082168061274b57607f821691505b60208210810361276b57634e487b7160e01b600052602260045260246000fd5b50919050565b6020808252600d908201526c2737ba103a34329037bbb732b960991b604082015260600190565b601f8211156127e257600081815260208120601f850160051c810160208610156127bf5750805b601f850160051c820191505b818110156127de578281556001016127cb565b5050505b505050565b815167ffffffffffffffff81111561280157612801612079565b6128158161280f8454612737565b84612798565b602080601f83116001811461284a57600084156128325750858301515b600019600386901b1c1916600185901b1785556127de565b600085815260208120601f198616915b828110156128795788860151825594840194600190910190840161285a565b50858210156128975787850151600019600388901b60f8161c191681555b5050505050600190811b01905550565b6020808252600d908201526c496e76616c696420737461676560981b604082015260600190565b602081016128dc828461257b565b92915050565b60006001820161290257634e487b7160e01b600052601160045260246000fd5b5060010190565b60408152600061291c60408301856121a7565b90506122a5602083018461216f565b60808152600061293e60808301876121a7565b61294b602084018761216f565b828103604084015261295d81866121a7565b91505060018060a01b038316606083015295945050505050565b60408152600061298a60408301856121a7565b905060018060a01b0383166020830152939250505056fe54d9fcf3da31043daf69e0a8ad35eaf7cfae552733f792dc3d95805eb45bfec201689b180f81c4e9d8925da92a012114998acc4fdf0267f01c37d5cecf707651a2646970667358221220ab318b92d63e6727959c93dc7d5ba5ef256934a5d187a479014059ca80cb7a7c64736f6c63430008140033",
  "immutableReferences": {},
  "source": "// SPDX-License-Identifier: MIT\r\npragma solidity ^0.8.20;\r\n\r\ncontract SupplyChain {\r\n    address public owner;  // Contract owner\r\n\r\n    constructor() {\r\n        owner = msg.sender;  // Set deployer as owner\r\n    }\r\n\r\n    // Modifier to allow only the owner to execute certain functions\r\n    modifier onlyOwner() {\r\n        require(msg.sender == owner, \"Not the owner\");\r\n        _;\r\n    }\r\n\r\n    // Transfer ownership to another address (if needed)\r\n    function transferOwnership(address newOwner) public onlyOwner {\r\n        require(newOwner != address(0), \"Invalid address\");\r\n        owner = newOwner;\r\n    }\r\n\r\n    // Enum to represent different supply chain stages\r\n    enum Stage {\r\n        Ordered,\r\n        RawMaterialSupplied,\r\n        Manufactured,\r\n        Distributed,\r\n        Retail,\r\n        Sold\r\n    }\r\n\r\n    // Enum to represent shipment status\r\n    enum ShipmentStatus {\r\n        Pending,\r\n        InTransit,\r\n        Delivered\r\n    }\r\n\r\n    // Structure to store details of a medicine\r\n    struct Medicine {\r\n        uint256 id;\r\n        string name;\r\n        string description;\r\n        address supplier;\r\n        address manufacturer;\r\n        address distributor;\r\n        address retailer;\r\n        Stage stage;\r\n    }\r\n\r\n    // Structure for supply chain participants\r\n    struct Participant {\r\n        address addr;\r\n        string name;\r\n        string location;\r\n    }\r\n\r\n    // Structure for shipment tracking\r\n    struct Shipment {\r\n        uint256 medicineId;\r\n        address sender;\r\n        address receiver;\r\n        string trackingId;\r\n        ShipmentStatus status;\r\n    }\r\n\r\n    // Structure for shipment notes history\r\n    struct ShipmentNote {\r\n        ShipmentStatus status;\r\n        string note;\r\n        uint256 timestamp;\r\n        address updatedBy;\r\n    }\r\n\r\n    // Structure for transaction tracking\r\n    struct Transaction {\r\n        uint256 medicineId;\r\n        address participant;\r\n        string action;\r\n        uint256 timestamp;\r\n    }\r\n\r\n    // Mappings to store data\r\n    mapping(uint256 => Medicine) public medicines;\r\n    mapping(address => Participant) public suppliers;\r\n    mapping(address => Participant) public manufacturers;\r\n    mapping(address => Participant) public distributors;\r\n    mapping(address => Participant) public retailers;\r\n    mapping(string => Shipment) public shipments;\r\n    mapping(string => ShipmentNote[]) public shipmentNotes;  // trackingId => notes history\r\n    Transaction[] public transactions;\r\n\r\n    // Counters to assign unique IDs\r\n    uint256 public medicineCounter;\r\n\r\n    // Events\r\n    event MedicineAdded(uint256 indexed medicineId, string name);\r\n    event ParticipantAdded(address indexed participant, string role);\r\n    event MedicineStageUpdated(uint256 indexed medicineId, Stage newStage);\r\n    event ShipmentCreated(uint256 indexed medicineId, string trackingId);\r\n    event ShipmentUpdated(string trackingId, ShipmentStatus status);\r\n    event ShipmentUpdatedWithNote(string trackingId, ShipmentStatus status, string note, address updatedBy);\r\n    event TransactionRecorded(uint256 indexed medicineId, string action, address participant);\r\n\r\n    // Add new medicine (only owner)\r\n    function addMedicine(string memory _name, string memory _description) public onlyOwner {\r\n        medicineCounter++;\r\n        medicines[medicineCounter] = Medicine(\r\n            medicineCounter,\r\n            _name,\r\n            _description,\r\n            address(0),  // No supplier assigned yet\r\n            address(0),  // No manufacturer assigned yet\r\n            address(0),  // No distributor assigned yet\r\n            address(0),  // No retailer assigned yet\r\n            Stage.Ordered\r\n        );\r\n\r\n        emit MedicineAdded(medicineCounter, _name);\r\n    }\r\n\r\n    // Register supply chain participants (only owner)\r\n    function addSupplier(address _addr, string memory _name, string memory _location) public onlyOwner {\r\n        suppliers[_addr] = Participant(_addr, _name, _location);\r\n        emit ParticipantAdded(_addr, \"Supplier\");\r\n    }\r\n\r\n    function addManufacturer(address _addr, string memory _name, string memory _location) public onlyOwner {\r\n        manufacturers[_addr] = Participant(_addr, _name, _location);\r\n        emit ParticipantAdded(_addr, \"Manufacturer\");\r\n    }\r\n\r\n    function addDistributor(address _addr, string memory _name, string memory _location) public onlyOwner {\r\n        distributors[_addr] = Participant(_addr, _name, _location);\r\n        emit ParticipantAdded(_addr, \"Distributor\");\r\n    }\r\n\r\n    function addRetailer(address _addr, string memory _name, string memory _location) public onlyOwner {\r\n        retailers[_addr] = Participant(_addr, _name, _location);\r\n        emit ParticipantAdded(_addr, \"Retailer\");\r\n    }\r\n\r\n    // Supply raw materials (Only Supplier)\r\n    function supplyRawMaterials(uint256 _medicineID) public {\r\n        require(suppliers[msg.sender].addr != address(0), \"Not a registered supplier\");\r\n        require(medicines[_medicineID].stage == Stage.Ordered, \"Invalid stage\");\r\n        medicines[_medicineID].supplier = msg.sender;\r\n        medicines[_medicineID].stage = Stage.RawMaterialSupplied;\r\n\r\n        emit MedicineStageUpdated(_medicineID, Stage.RawMaterialSupplied);\r\n        recordTransaction(_medicineID, \"Raw Material Supplied\", msg.sender);\r\n    }\r\n\r\n    // Manufacture medicine (Only Manufacturer)\r\n    function manufactureMedicine(uint256 _medicineID) public {\r\n        require(manufacturers[msg.sender].addr != address(0), \"Not a registered manufacturer\");\r\n        require(medicines[_medicineID].stage == Stage.RawMaterialSupplied, \"Invalid stage\");\r\n        medicines[_medicineID].manufacturer = msg.sender;\r\n        medicines[_medicineID].stage = Stage.Manufactured;\r\n\r\n        emit MedicineStageUpdated(_medicineID, Stage.Manufactured);\r\n        recordTransaction(_medicineID, \"Manufactured\", msg.sender);\r\n    }\r\n\r\n    // Distribute medicine (Only Distributor)\r\n    function distributeMedicine(uint256 _medicineID) public {\r\n        require(distributors[msg.sender].addr != address(0), \"Not a registered distributor\");\r\n        require(medicines[_medicineID].stage == Stage.Manufactured, \"Invalid stage\");\r\n        medicines[_medicineID].distributor = msg.sender;\r\n        medicines[_medicineID].stage = Stage.Distributed;\r\n\r\n        emit MedicineStageUpdated(_medicineID, Stage.Distributed);\r\n        recordTransaction(_medicineID, \"Distributed\", msg.sender);\r\n    }\r\n\r\n    // Retail medicine (Only Retailer)\r\n    function retailMedicine(uint256 _medicineID) public {\r\n        require(retailers[msg.sender].addr != address(0), \"Not a registered retailer\");\r\n        require(medicines[_medicineID].stage == Stage.Distributed, \"Invalid stage\");\r\n        medicines[_medicineID].retailer = msg.sender;\r\n        medicines[_medicineID].stage = Stage.Retail;\r\n\r\n        emit MedicineStageUpdated(_medicineID, Stage.Retail);\r\n        recordTransaction(_medicineID, \"Available for Sale\", msg.sender);\r\n    }\r\n\r\n    // Mark medicine as sold (Only assigned retailer)\r\n    function sellMedicine(uint256 _medicineID) public {\r\n        require(medicines[_medicineID].retailer == msg.sender, \"Not the assigned retailer\");\r\n        require(medicines[_medicineID].stage == Stage.Retail, \"Invalid stage\");\r\n        medicines[_medicineID].stage = Stage.Sold;\r\n\r\n        emit MedicineStageUpdated(_medicineID, Stage.Sold);\r\n        recordTransaction(_medicineID, \"Sold\", msg.sender);\r\n    }\r\n\r\n    // Get current stage of medicine\r\n    function getMedicineStage(uint256 _medicineID) public view returns (string memory) {\r\n        require(_medicineID > 0 && _medicineID <= medicineCounter, \"Invalid medicine ID\");\r\n\r\n        if (medicines[_medicineID].stage == Stage.Ordered) return \"Ordered\";\r\n        if (medicines[_medicineID].stage == Stage.RawMaterialSupplied) return \"Raw Material Supplied\";\r\n        if (medicines[_medicineID].stage == Stage.Manufactured) return \"Manufactured\";\r\n        if (medicines[_medicineID].stage == Stage.Distributed) return \"Distributed\";\r\n        if (medicines[_medicineID].stage == Stage.Retail) return \"Retail\";\r\n        if (medicines[_medicineID].stage == Stage.Sold) return \"Sold\";\r\n\r\n        return \"Unknown\";\r\n    }\r\n\r\n    // Create a shipment\r\n    function createShipment(uint256 _medicineID, address _receiver, string memory _trackingId) public {\r\n        require(medicines[_medicineID].distributor == msg.sender, \"Only distributor can create shipment\");\r\n        shipments[_trackingId] = Shipment(_medicineID, msg.sender, _receiver, _trackingId, ShipmentStatus.Pending);\r\n\r\n        emit ShipmentCreated(_medicineID, _trackingId);\r\n    }\r\n\r\n    // Update shipment status\r\n    function updateShipmentStatus(string memory _trackingId, ShipmentStatus _status) public {\r\n        require(shipments[_trackingId].sender != address(0), \"Shipment not found\");\r\n        shipments[_trackingId].status = _status;\r\n\r\n        emit ShipmentUpdated(_trackingId, _status);\r\n    }\r\n\r\n    // Update shipment status with a note\r\n    function updateShipmentStatusWithNote(\r\n        string memory _trackingId,\r\n        ShipmentStatus _status,\r\n        string memory _note\r\n    ) public {\r\n        require(shipments[_trackingId].sender != address(0), \"Shipment not found\");\r\n        \r\n        // Update the shipment status\r\n        shipments[_trackingId].status = _status;\r\n        \r\n        // Add note to history\r\n        shipmentNotes[_trackingId].push(ShipmentNote({\r\n            status: _status,\r\n            note: _note,\r\n            timestamp: block.timestamp,\r\n            updatedBy: msg.sender\r\n        }));\r\n\r\n        emit ShipmentUpdatedWithNote(_trackingId, _status, _note, msg.sender);\r\n    }\r\n\r\n    // Get all notes for a shipment\r\n    function getShipmentNotes(string memory _trackingId) public view returns (ShipmentNote[] memory) {\r\n        require(shipments[_trackingId].sender != address(0), \"Shipment not found\");\r\n        return shipmentNotes[_trackingId];\r\n    }\r\n\r\n    // Get transaction history\r\n    function getTransactions() public view returns (Transaction[] memory) {\r\n        return transactions;\r\n    }\r\n\r\n    // Record transaction\r\n    function recordTransaction(uint256 _medicineID, string memory _action, address _participant) internal {\r\n        transactions.push(Transaction(_medicineID, _participant, _action, block.timestamp));\r\n        emit TransactionRecorded(_medicineID, _action, _participant);\r\n    }\r\n}",
  "sourcePath": "D:\\Task-Medicine-Supply-Chain-Management\\contracts\\Supplychain.sol",
  "compiler": {
    "name": "solc",
    "version": "0.8.20+commit.a1b79de6.Emscripten.clang"
  },
  "schemaVersion": "3.4.16",
  "updatedAt": "2026-01-06T12:16:49.168Z",
  "networkType": "ethereum",
  "devdoc": {
    "kind": "dev",
    "methods": {},
    "version": 1
  },
  "userdoc": {
    "kind": "user",
    "methods": {},
    "version": 1
  }
}